:060000000A128A110C280F
:10000800FE00030EF1000A08F2000A128A119A286B
:100018000A128A110F28F70183010A128A115D2832
:1000280001308316031788008901013083160313F2
:100038008500831203138501831603138701831236
:10004800031387018316031388018312031388019E
:10005800831603130F088F3960388F000F1483122B
:1000680003131F083F3940389F00831603131F12DC
:100078009F16C330831203139F05831603139F1320
:10008800831203131F140D30F300F30B4928831256
:1000980003130C13831603130C170B178B17061473
:1000A800861481138B1515149514161496100B10BD
:1000B80008000A128A1114200A128A1183120313E3
:1000C8009F186728682869289F1486186C286D2847
:1000D8007128F701F70A7128630077030319752857
:1000E800762870288312031308140330F6008A3028
:1000F800F5005530F400F40B7F28F50B7F28F60B3C
:100108007F2886288312031308100330F6008A30EC
:10011800F5005530F400F40B8F28F50B8F28F60BFB
:100128008F28962862280A128A110C288312031332
:100138000C1F9F28A028AC281F0CF000700C0F394A
:10014800003A031DA828A928AB281E0887000C130D
:100158000B1CAF28B028B6280618B328B428B52831
:10016800F7010B1072088A00710E8300FE0E7E0ED6
:0201780009007C
:08400000FF3FFF3FFF3FFF3FC0
:04400E00D420FF3F7C
:00000001FF
